{
  "_format": "hh-sol-artifact-1",
  "contractName": "AfriCropDAO",
  "sourceName": "contracts/AfriCropDAO.sol",
  "abi": [
    {
      "inputs": [],
      "stateMutability": "nonpayable",
      "type": "constructor"
    },
    {
      "inputs": [],
      "name": "AfriCropDAO__AlreadyRegistered",
      "type": "error"
    },
    {
      "inputs": [
        {
          "internalType": "uint256",
          "name": "proposalId",
          "type": "uint256"
        }
      ],
      "name": "AfriCropDAO__AlreadyVoted",
      "type": "error"
    },
    {
      "inputs": [],
      "name": "AfriCropDAO__CannotVoteOnExpiredProposal",
      "type": "error"
    },
    {
      "inputs": [
        {
          "internalType": "uint256",
          "name": "cropId",
          "type": "uint256"
        }
      ],
      "name": "AfriCropDAO__CropNotFound",
      "type": "error"
    },
    {
      "inputs": [
        {
          "internalType": "address",
          "name": "farmer",
          "type": "address"
        }
      ],
      "name": "AfriCropDAO__FarmerNotRegistered",
      "type": "error"
    },
    {
      "inputs": [],
      "name": "AfriCropDAO__InsufficientFunds",
      "type": "error"
    },
    {
      "inputs": [],
      "name": "AfriCropDAO__InsufficientReputationForMentorship",
      "type": "error"
    },
    {
      "inputs": [],
      "name": "AfriCropDAO__InsufficientStake",
      "type": "error"
    },
    {
      "inputs": [
        {
          "internalType": "uint256",
          "name": "cropId",
          "type": "uint256"
        },
        {
          "internalType": "enum AfriCropDAO.CropStage",
          "name": "expectedStage",
          "type": "uint8"
        }
      ],
      "name": "AfriCropDAO__InvalidCropStage",
      "type": "error"
    },
    {
      "inputs": [],
      "name": "AfriCropDAO__InvalidDonationAmount",
      "type": "error"
    },
    {
      "inputs": [],
      "name": "AfriCropDAO__LessonAlreadyCompleted",
      "type": "error"
    },
    {
      "inputs": [
        {
          "internalType": "uint256",
          "name": "listingId",
          "type": "uint256"
        }
      ],
      "name": "AfriCropDAO__ListingNotFound",
      "type": "error"
    },
    {
      "inputs": [],
      "name": "AfriCropDAO__MentorAlreadyAssigned",
      "type": "error"
    },
    {
      "inputs": [],
      "name": "AfriCropDAO__MentorshipNotCompleted",
      "type": "error"
    },
    {
      "inputs": [
        {
          "internalType": "address",
          "name": "caller",
          "type": "address"
        },
        {
          "internalType": "uint256",
          "name": "cropId",
          "type": "uint256"
        }
      ],
      "name": "AfriCropDAO__NotCropOwner",
      "type": "error"
    },
    {
      "inputs": [
        {
          "internalType": "uint256",
          "name": "cropId",
          "type": "uint256"
        }
      ],
      "name": "AfriCropDAO__NotHarvested",
      "type": "error"
    },
    {
      "inputs": [
        {
          "internalType": "uint256",
          "name": "listingId",
          "type": "uint256"
        }
      ],
      "name": "AfriCropDAO__NotListingOwner",
      "type": "error"
    },
    {
      "inputs": [],
      "name": "AfriCropDAO__NotMentorOrMentee",
      "type": "error"
    },
    {
      "inputs": [
        {
          "internalType": "uint256",
          "name": "cropId",
          "type": "uint256"
        }
      ],
      "name": "AfriCropDAO__NotSelling",
      "type": "error"
    },
    {
      "inputs": [],
      "name": "AfriCropDAO__ProposalNotExecutable",
      "type": "error"
    },
    {
      "inputs": [
        {
          "internalType": "uint256",
          "name": "proposalId",
          "type": "uint256"
        }
      ],
      "name": "AfriCropDAO__ProposalNotFound",
      "type": "error"
    },
    {
      "inputs": [
        {
          "internalType": "uint256",
          "name": "requiredStake",
          "type": "uint256"
        }
      ],
      "name": "AfriCropDAO__StakeRequired",
      "type": "error"
    },
    {
      "inputs": [],
      "name": "AfriCropDAO__VotingPeriodNotActive",
      "type": "error"
    },
    {
      "inputs": [],
      "name": "AfriCropDAO__ZeroAmount",
      "type": "error"
    },
    {
      "anonymous": false,
      "inputs": [
        {
          "indexed": true,
          "internalType": "uint256",
          "name": "listingId",
          "type": "uint256"
        },
        {
          "indexed": true,
          "internalType": "uint256",
          "name": "cropId",
          "type": "uint256"
        },
        {
          "indexed": true,
          "internalType": "address",
          "name": "seller",
          "type": "address"
        },
        {
          "indexed": false,
          "internalType": "uint256",
          "name": "price",
          "type": "uint256"
        },
        {
          "indexed": false,
          "internalType": "uint256",
          "name": "quantity",
          "type": "uint256"
        }
      ],
      "name": "CropListed",
      "type": "event"
    },
    {
      "anonymous": false,
      "inputs": [
        {
          "indexed": true,
          "internalType": "uint256",
          "name": "listingId",
          "type": "uint256"
        },
        {
          "indexed": true,
          "internalType": "uint256",
          "name": "cropId",
          "type": "uint256"
        }
      ],
      "name": "CropListingCancelled",
      "type": "event"
    },
    {
      "anonymous": false,
      "inputs": [
        {
          "indexed": true,
          "internalType": "uint256",
          "name": "listingId",
          "type": "uint256"
        },
        {
          "indexed": true,
          "internalType": "uint256",
          "name": "cropId",
          "type": "uint256"
        },
        {
          "indexed": true,
          "internalType": "address",
          "name": "buyer",
          "type": "address"
        },
        {
          "indexed": false,
          "internalType": "address",
          "name": "seller",
          "type": "address"
        },
        {
          "indexed": false,
          "internalType": "uint256",
          "name": "price",
          "type": "uint256"
        },
        {
          "indexed": false,
          "internalType": "uint256",
          "name": "daoFee",
          "type": "uint256"
        }
      ],
      "name": "CropPurchased",
      "type": "event"
    },
    {
      "anonymous": false,
      "inputs": [
        {
          "indexed": true,
          "internalType": "uint256",
          "name": "cropId",
          "type": "uint256"
        },
        {
          "indexed": true,
          "internalType": "address",
          "name": "farmerAddress",
          "type": "address"
        },
        {
          "indexed": false,
          "internalType": "enum AfriCropDAO.CropType",
          "name": "cropType",
          "type": "uint8"
        },
        {
          "indexed": false,
          "internalType": "string",
          "name": "farmId",
          "type": "string"
        },
        {
          "indexed": false,
          "internalType": "uint256",
          "name": "timestamp",
          "type": "uint256"
        }
      ],
      "name": "CropSown",
      "type": "event"
    },
    {
      "anonymous": false,
      "inputs": [
        {
          "indexed": true,
          "internalType": "uint256",
          "name": "cropId",
          "type": "uint256"
        },
        {
          "indexed": false,
          "internalType": "enum AfriCropDAO.CropStage",
          "name": "newStage",
          "type": "uint8"
        },
        {
          "indexed": false,
          "internalType": "uint256",
          "name": "timestamp",
          "type": "uint256"
        }
      ],
      "name": "CropStageUpdated",
      "type": "event"
    },
    {
      "anonymous": false,
      "inputs": [
        {
          "indexed": false,
          "internalType": "string",
          "name": "action",
          "type": "string"
        },
        {
          "indexed": true,
          "internalType": "address",
          "name": "user",
          "type": "address"
        },
        {
          "indexed": false,
          "internalType": "uint256",
          "name": "data",
          "type": "uint256"
        }
      ],
      "name": "DebugAction",
      "type": "event"
    },
    {
      "anonymous": false,
      "inputs": [
        {
          "indexed": false,
          "internalType": "bool",
          "name": "enabled",
          "type": "bool"
        }
      ],
      "name": "DebugModeToggled",
      "type": "event"
    },
    {
      "anonymous": false,
      "inputs": [
        {
          "indexed": true,
          "internalType": "address",
          "name": "farmerAddress",
          "type": "address"
        },
        {
          "indexed": false,
          "internalType": "uint256",
          "name": "initialReputation",
          "type": "uint256"
        }
      ],
      "name": "FarmerRegistered",
      "type": "event"
    },
    {
      "anonymous": false,
      "inputs": [
        {
          "indexed": true,
          "internalType": "address",
          "name": "recipient",
          "type": "address"
        },
        {
          "indexed": false,
          "internalType": "uint256",
          "name": "amount",
          "type": "uint256"
        }
      ],
      "name": "FundAllocationExecuted",
      "type": "event"
    },
    {
      "anonymous": false,
      "inputs": [
        {
          "indexed": true,
          "internalType": "address",
          "name": "farmerAddress",
          "type": "address"
        },
        {
          "indexed": false,
          "internalType": "uint256",
          "name": "newPoints",
          "type": "uint256"
        }
      ],
      "name": "HarvestPointsUpdated",
      "type": "event"
    },
    {
      "anonymous": false,
      "inputs": [
        {
          "indexed": true,
          "internalType": "address",
          "name": "farmerAddress",
          "type": "address"
        },
        {
          "indexed": false,
          "internalType": "uint256",
          "name": "newPoints",
          "type": "uint256"
        }
      ],
      "name": "KnowledgePointsUpdated",
      "type": "event"
    },
    {
      "anonymous": false,
      "inputs": [
        {
          "indexed": true,
          "internalType": "uint256",
          "name": "lessonId",
          "type": "uint256"
        },
        {
          "indexed": false,
          "internalType": "string",
          "name": "ipfsHash",
          "type": "string"
        },
        {
          "indexed": false,
          "internalType": "uint256",
          "name": "knowledgePointsReward",
          "type": "uint256"
        }
      ],
      "name": "LessonAdded",
      "type": "event"
    },
    {
      "anonymous": false,
      "inputs": [
        {
          "indexed": true,
          "internalType": "address",
          "name": "farmerAddress",
          "type": "address"
        },
        {
          "indexed": true,
          "internalType": "uint256",
          "name": "lessonId",
          "type": "uint256"
        },
        {
          "indexed": false,
          "internalType": "uint256",
          "name": "knowledgePointsEarned",
          "type": "uint256"
        }
      ],
      "name": "LessonCompleted",
      "type": "event"
    },
    {
      "anonymous": false,
      "inputs": [
        {
          "indexed": true,
          "internalType": "uint256",
          "name": "sessionId",
          "type": "uint256"
        }
      ],
      "name": "MentorshipAccepted",
      "type": "event"
    },
    {
      "anonymous": false,
      "inputs": [
        {
          "indexed": true,
          "internalType": "uint256",
          "name": "sessionId",
          "type": "uint256"
        },
        {
          "indexed": true,
          "internalType": "address",
          "name": "mentor",
          "type": "address"
        },
        {
          "indexed": true,
          "internalType": "address",
          "name": "mentee",
          "type": "address"
        }
      ],
      "name": "MentorshipCompleted",
      "type": "event"
    },
    {
      "anonymous": false,
      "inputs": [
        {
          "indexed": true,
          "internalType": "uint256",
          "name": "sessionId",
          "type": "uint256"
        },
        {
          "indexed": true,
          "internalType": "address",
          "name": "mentee",
          "type": "address"
        },
        {
          "indexed": true,
          "internalType": "address",
          "name": "mentor",
          "type": "address"
        }
      ],
      "name": "MentorshipRequested",
      "type": "event"
    },
    {
      "anonymous": false,
      "inputs": [
        {
          "indexed": true,
          "internalType": "address",
          "name": "previousOwner",
          "type": "address"
        },
        {
          "indexed": true,
          "internalType": "address",
          "name": "newOwner",
          "type": "address"
        }
      ],
      "name": "OwnershipTransferred",
      "type": "event"
    },
    {
      "anonymous": false,
      "inputs": [
        {
          "indexed": true,
          "internalType": "uint256",
          "name": "paramKey",
          "type": "uint256"
        },
        {
          "indexed": false,
          "internalType": "uint256",
          "name": "newValue",
          "type": "uint256"
        }
      ],
      "name": "ParameterChangeExecuted",
      "type": "event"
    },
    {
      "anonymous": false,
      "inputs": [
        {
          "indexed": true,
          "internalType": "uint256",
          "name": "proposalId",
          "type": "uint256"
        },
        {
          "indexed": true,
          "internalType": "address",
          "name": "proposer",
          "type": "address"
        },
        {
          "indexed": false,
          "internalType": "enum AfriCropDAO.ProposalType",
          "name": "proposalType",
          "type": "uint8"
        },
        {
          "indexed": false,
          "internalType": "uint256",
          "name": "stake",
          "type": "uint256"
        }
      ],
      "name": "ProposalCreated",
      "type": "event"
    },
    {
      "anonymous": false,
      "inputs": [
        {
          "indexed": true,
          "internalType": "uint256",
          "name": "proposalId",
          "type": "uint256"
        }
      ],
      "name": "ProposalExecuted",
      "type": "event"
    },
    {
      "anonymous": false,
      "inputs": [
        {
          "indexed": true,
          "internalType": "address",
          "name": "farmerAddress",
          "type": "address"
        },
        {
          "indexed": false,
          "internalType": "uint256",
          "name": "newReputation",
          "type": "uint256"
        }
      ],
      "name": "ReputationUpdated",
      "type": "event"
    },
    {
      "anonymous": false,
      "inputs": [
        {
          "indexed": true,
          "internalType": "address",
          "name": "farmerAddress",
          "type": "address"
        },
        {
          "indexed": false,
          "internalType": "uint256",
          "name": "newScore",
          "type": "uint256"
        }
      ],
      "name": "SustainabilityScoreUpdated",
      "type": "event"
    },
    {
      "anonymous": false,
      "inputs": [
        {
          "indexed": true,
          "internalType": "address",
          "name": "donor",
          "type": "address"
        },
        {
          "indexed": false,
          "internalType": "uint256",
          "name": "amount",
          "type": "uint256"
        }
      ],
      "name": "TreasuryDonation",
      "type": "event"
    },
    {
      "anonymous": false,
      "inputs": [
        {
          "indexed": true,
          "internalType": "address",
          "name": "recipient",
          "type": "address"
        },
        {
          "indexed": false,
          "internalType": "uint256",
          "name": "amount",
          "type": "uint256"
        }
      ],
      "name": "TreasuryWithdrawn",
      "type": "event"
    },
    {
      "anonymous": false,
      "inputs": [
        {
          "indexed": true,
          "internalType": "uint256",
          "name": "proposalId",
          "type": "uint256"
        },
        {
          "indexed": true,
          "internalType": "address",
          "name": "voter",
          "type": "address"
        },
        {
          "indexed": false,
          "internalType": "uint256",
          "name": "votingPower",
          "type": "uint256"
        },
        {
          "indexed": false,
          "internalType": "bool",
          "name": "vote",
          "type": "bool"
        }
      ],
      "name": "VoteCast",
      "type": "event"
    },
    {
      "inputs": [],
      "name": "DAO_FEE_PERCENT",
      "outputs": [
        {
          "internalType": "uint256",
          "name": "",
          "type": "uint256"
        }
      ],
      "stateMutability": "view",
      "type": "function"
    },
    {
      "inputs": [
        {
          "internalType": "uint256",
          "name": "_sessionId",
          "type": "uint256"
        }
      ],
      "name": "acceptMentorship",
      "outputs": [],
      "stateMutability": "nonpayable",
      "type": "function"
    },
    {
      "inputs": [
        {
          "internalType": "uint256",
          "name": "",
          "type": "uint256"
        }
      ],
      "name": "activeListings",
      "outputs": [
        {
          "internalType": "uint256",
          "name": "",
          "type": "uint256"
        }
      ],
      "stateMutability": "view",
      "type": "function"
    },
    {
      "inputs": [
        {
          "internalType": "address",
          "name": "",
          "type": "address"
        },
        {
          "internalType": "uint256",
          "name": "",
          "type": "uint256"
        }
      ],
      "name": "activeMentorships",
      "outputs": [
        {
          "internalType": "uint256",
          "name": "",
          "type": "uint256"
        }
      ],
      "stateMutability": "view",
      "type": "function"
    },
    {
      "inputs": [
        {
          "internalType": "string",
          "name": "_ipfsHash",
          "type": "string"
        },
        {
          "internalType": "uint256",
          "name": "_knowledgePointsReward",
          "type": "uint256"
        }
      ],
      "name": "addLesson",
      "outputs": [],
      "stateMutability": "nonpayable",
      "type": "function"
    },
    {
      "inputs": [
        {
          "internalType": "address",
          "name": "_farmerAddress",
          "type": "address"
        }
      ],
      "name": "calculateVotingPower",
      "outputs": [
        {
          "internalType": "uint256",
          "name": "",
          "type": "uint256"
        }
      ],
      "stateMutability": "view",
      "type": "function"
    },
    {
      "inputs": [
        {
          "internalType": "uint256",
          "name": "_listingId",
          "type": "uint256"
        }
      ],
      "name": "cancelCropListing",
      "outputs": [],
      "stateMutability": "nonpayable",
      "type": "function"
    },
    {
      "inputs": [
        {
          "internalType": "uint256",
          "name": "_lessonId",
          "type": "uint256"
        }
      ],
      "name": "completeLesson",
      "outputs": [],
      "stateMutability": "nonpayable",
      "type": "function"
    },
    {
      "inputs": [
        {
          "internalType": "uint256",
          "name": "_sessionId",
          "type": "uint256"
        }
      ],
      "name": "completeMentorship",
      "outputs": [],
      "stateMutability": "nonpayable",
      "type": "function"
    },
    {
      "inputs": [
        {
          "internalType": "address",
          "name": "",
          "type": "address"
        },
        {
          "internalType": "uint256",
          "name": "",
          "type": "uint256"
        }
      ],
      "name": "completedLessons",
      "outputs": [
        {
          "internalType": "bool",
          "name": "",
          "type": "bool"
        }
      ],
      "stateMutability": "view",
      "type": "function"
    },
    {
      "inputs": [
        {
          "internalType": "enum AfriCropDAO.ProposalType",
          "name": "_proposalType",
          "type": "uint8"
        },
        {
          "internalType": "string",
          "name": "_description",
          "type": "string"
        },
        {
          "internalType": "address",
          "name": "_targetAddress",
          "type": "address"
        },
        {
          "internalType": "uint256",
          "name": "_amount",
          "type": "uint256"
        },
        {
          "internalType": "uint256",
          "name": "_paramKey",
          "type": "uint256"
        },
        {
          "internalType": "uint256",
          "name": "_paramValue",
          "type": "uint256"
        },
        {
          "internalType": "string",
          "name": "_researchGrantDetailsIPFSHash",
          "type": "string"
        }
      ],
      "name": "createProposal",
      "outputs": [
        {
          "internalType": "uint256",
          "name": "",
          "type": "uint256"
        }
      ],
      "stateMutability": "payable",
      "type": "function"
    },
    {
      "inputs": [
        {
          "internalType": "uint256",
          "name": "",
          "type": "uint256"
        }
      ],
      "name": "crops",
      "outputs": [
        {
          "internalType": "uint256",
          "name": "id",
          "type": "uint256"
        },
        {
          "internalType": "address",
          "name": "farmerAddress",
          "type": "address"
        },
        {
          "internalType": "enum AfriCropDAO.CropType",
          "name": "cropType",
          "type": "uint8"
        },
        {
          "internalType": "string",
          "name": "farmId",
          "type": "string"
        },
        {
          "internalType": "uint256",
          "name": "sownTimestamp",
          "type": "uint256"
        },
        {
          "internalType": "uint256",
          "name": "harvestedTimestamp",
          "type": "uint256"
        },
        {
          "internalType": "enum AfriCropDAO.CropStage",
          "name": "stage",
          "type": "uint8"
        },
        {
          "internalType": "uint256",
          "name": "initialSeeds",
          "type": "uint256"
        },
        {
          "internalType": "uint256",
          "name": "harvestedOutput",
          "type": "uint256"
        }
      ],
      "stateMutability": "view",
      "type": "function"
    },
    {
      "inputs": [],
      "name": "debugMode",
      "outputs": [
        {
          "internalType": "bool",
          "name": "",
          "type": "bool"
        }
      ],
      "stateMutability": "view",
      "type": "function"
    },
    {
      "inputs": [
        {
          "internalType": "address",
          "name": "_user",
          "type": "address"
        },
        {
          "internalType": "uint256",
          "name": "_points",
          "type": "uint256"
        }
      ],
      "name": "debug_AddReputation",
      "outputs": [],
      "stateMutability": "nonpayable",
      "type": "function"
    },
    {
      "inputs": [
        {
          "internalType": "address",
          "name": "_user",
          "type": "address"
        },
        {
          "internalType": "uint256",
          "name": "_lessonId",
          "type": "uint256"
        }
      ],
      "name": "debug_CompleteLesson",
      "outputs": [],
      "stateMutability": "nonpayable",
      "type": "function"
    },
    {
      "inputs": [
        {
          "internalType": "uint256",
          "name": "_cropId",
          "type": "uint256"
        }
      ],
      "name": "debug_ForceHarvest",
      "outputs": [],
      "stateMutability": "nonpayable",
      "type": "function"
    },
    {
      "inputs": [],
      "name": "donateToTreasury",
      "outputs": [],
      "stateMutability": "payable",
      "type": "function"
    },
    {
      "inputs": [
        {
          "internalType": "uint256",
          "name": "_proposalId",
          "type": "uint256"
        }
      ],
      "name": "executeProposal",
      "outputs": [],
      "stateMutability": "nonpayable",
      "type": "function"
    },
    {
      "inputs": [
        {
          "internalType": "address",
          "name": "",
          "type": "address"
        },
        {
          "internalType": "uint256",
          "name": "",
          "type": "uint256"
        }
      ],
      "name": "farmerCrops",
      "outputs": [
        {
          "internalType": "uint256",
          "name": "",
          "type": "uint256"
        }
      ],
      "stateMutability": "view",
      "type": "function"
    },
    {
      "inputs": [
        {
          "internalType": "address",
          "name": "",
          "type": "address"
        }
      ],
      "name": "farmers",
      "outputs": [
        {
          "internalType": "address",
          "name": "walletAddress",
          "type": "address"
        },
        {
          "internalType": "uint256",
          "name": "reputationPoints",
          "type": "uint256"
        },
        {
          "internalType": "uint256",
          "name": "sustainabilityScore",
          "type": "uint256"
        },
        {
          "internalType": "uint256",
          "name": "knowledgePoints",
          "type": "uint256"
        },
        {
          "internalType": "uint256",
          "name": "harvestPoints",
          "type": "uint256"
        },
        {
          "internalType": "uint256",
          "name": "lastProposalStakeTime",
          "type": "uint256"
        },
        {
          "internalType": "bool",
          "name": "isRegistered",
          "type": "bool"
        }
      ],
      "stateMutability": "view",
      "type": "function"
    },
    {
      "inputs": [],
      "name": "getActiveMarketListings",
      "outputs": [
        {
          "components": [
            {
              "internalType": "uint256",
              "name": "listingId",
              "type": "uint256"
            },
            {
              "internalType": "uint256",
              "name": "cropId",
              "type": "uint256"
            },
            {
              "internalType": "address",
              "name": "seller",
              "type": "address"
            },
            {
              "internalType": "uint256",
              "name": "priceInWei",
              "type": "uint256"
            },
            {
              "internalType": "uint256",
              "name": "quantityToSell",
              "type": "uint256"
            },
            {
              "internalType": "uint256",
              "name": "listingTimestamp",
              "type": "uint256"
            },
            {
              "internalType": "bool",
              "name": "isActive",
              "type": "bool"
            }
          ],
          "internalType": "struct AfriCropDAO.MarketListing[]",
          "name": "",
          "type": "tuple[]"
        }
      ],
      "stateMutability": "view",
      "type": "function"
    },
    {
      "inputs": [],
      "name": "getCropTypes",
      "outputs": [
        {
          "internalType": "string[11]",
          "name": "",
          "type": "string[11]"
        }
      ],
      "stateMutability": "pure",
      "type": "function"
    },
    {
      "inputs": [
        {
          "internalType": "address",
          "name": "_farmerAddress",
          "type": "address"
        }
      ],
      "name": "getFarmerCrops",
      "outputs": [
        {
          "internalType": "uint256[]",
          "name": "",
          "type": "uint256[]"
        }
      ],
      "stateMutability": "view",
      "type": "function"
    },
    {
      "inputs": [
        {
          "internalType": "address",
          "name": "_farmerAddress",
          "type": "address"
        }
      ],
      "name": "getFarmerProfile",
      "outputs": [
        {
          "components": [
            {
              "internalType": "address",
              "name": "walletAddress",
              "type": "address"
            },
            {
              "internalType": "uint256",
              "name": "reputationPoints",
              "type": "uint256"
            },
            {
              "internalType": "uint256",
              "name": "sustainabilityScore",
              "type": "uint256"
            },
            {
              "internalType": "uint256",
              "name": "knowledgePoints",
              "type": "uint256"
            },
            {
              "internalType": "uint256",
              "name": "harvestPoints",
              "type": "uint256"
            },
            {
              "internalType": "uint256",
              "name": "lastProposalStakeTime",
              "type": "uint256"
            },
            {
              "internalType": "bool",
              "name": "isRegistered",
              "type": "bool"
            }
          ],
          "internalType": "struct AfriCropDAO.Farmer",
          "name": "",
          "type": "tuple"
        }
      ],
      "stateMutability": "view",
      "type": "function"
    },
    {
      "inputs": [
        {
          "internalType": "uint256",
          "name": "_lessonId",
          "type": "uint256"
        }
      ],
      "name": "getLesson",
      "outputs": [
        {
          "components": [
            {
              "internalType": "uint256",
              "name": "id",
              "type": "uint256"
            },
            {
              "internalType": "string",
              "name": "ipfsHash",
              "type": "string"
            },
            {
              "internalType": "uint256",
              "name": "knowledgePointsReward",
              "type": "uint256"
            }
          ],
          "internalType": "struct AfriCropDAO.Lesson",
          "name": "",
          "type": "tuple"
        }
      ],
      "stateMutability": "view",
      "type": "function"
    },
    {
      "inputs": [
        {
          "internalType": "address",
          "name": "_farmerAddress",
          "type": "address"
        }
      ],
      "name": "getMentorshipSessions",
      "outputs": [
        {
          "internalType": "uint256[]",
          "name": "",
          "type": "uint256[]"
        }
      ],
      "stateMutability": "view",
      "type": "function"
    },
    {
      "inputs": [
        {
          "internalType": "uint256",
          "name": "_proposalId",
          "type": "uint256"
        }
      ],
      "name": "getProposalStatus",
      "outputs": [
        {
          "internalType": "enum AfriCropDAO.ProposalStatus",
          "name": "",
          "type": "uint8"
        }
      ],
      "stateMutability": "view",
      "type": "function"
    },
    {
      "inputs": [],
      "name": "getProposalTypes",
      "outputs": [
        {
          "internalType": "string[4]",
          "name": "",
          "type": "string[4]"
        }
      ],
      "stateMutability": "pure",
      "type": "function"
    },
    {
      "inputs": [],
      "name": "getRegisteredFarmers",
      "outputs": [
        {
          "internalType": "address[]",
          "name": "",
          "type": "address[]"
        }
      ],
      "stateMutability": "view",
      "type": "function"
    },
    {
      "inputs": [],
      "name": "getTreasuryBalance",
      "outputs": [
        {
          "internalType": "uint256",
          "name": "",
          "type": "uint256"
        }
      ],
      "stateMutability": "view",
      "type": "function"
    },
    {
      "inputs": [
        {
          "internalType": "uint256",
          "name": "",
          "type": "uint256"
        }
      ],
      "name": "lessons",
      "outputs": [
        {
          "internalType": "uint256",
          "name": "id",
          "type": "uint256"
        },
        {
          "internalType": "string",
          "name": "ipfsHash",
          "type": "string"
        },
        {
          "internalType": "uint256",
          "name": "knowledgePointsReward",
          "type": "uint256"
        }
      ],
      "stateMutability": "view",
      "type": "function"
    },
    {
      "inputs": [
        {
          "internalType": "uint256",
          "name": "_cropId",
          "type": "uint256"
        },
        {
          "internalType": "uint256",
          "name": "_priceInWei",
          "type": "uint256"
        },
        {
          "internalType": "uint256",
          "name": "_quantityToSell",
          "type": "uint256"
        },
        {
          "internalType": "uint256",
          "name": "_plantsDiedOffPercentage",
          "type": "uint256"
        }
      ],
      "name": "listCropForSale",
      "outputs": [],
      "stateMutability": "nonpayable",
      "type": "function"
    },
    {
      "inputs": [
        {
          "internalType": "uint256",
          "name": "",
          "type": "uint256"
        }
      ],
      "name": "marketListings",
      "outputs": [
        {
          "internalType": "uint256",
          "name": "listingId",
          "type": "uint256"
        },
        {
          "internalType": "uint256",
          "name": "cropId",
          "type": "uint256"
        },
        {
          "internalType": "address",
          "name": "seller",
          "type": "address"
        },
        {
          "internalType": "uint256",
          "name": "priceInWei",
          "type": "uint256"
        },
        {
          "internalType": "uint256",
          "name": "quantityToSell",
          "type": "uint256"
        },
        {
          "internalType": "uint256",
          "name": "listingTimestamp",
          "type": "uint256"
        },
        {
          "internalType": "bool",
          "name": "isActive",
          "type": "bool"
        }
      ],
      "stateMutability": "view",
      "type": "function"
    },
    {
      "inputs": [
        {
          "internalType": "uint256",
          "name": "",
          "type": "uint256"
        }
      ],
      "name": "mentorshipSessions",
      "outputs": [
        {
          "internalType": "uint256",
          "name": "id",
          "type": "uint256"
        },
        {
          "internalType": "address",
          "name": "mentor",
          "type": "address"
        },
        {
          "internalType": "address",
          "name": "mentee",
          "type": "address"
        },
        {
          "internalType": "bool",
          "name": "accepted",
          "type": "bool"
        },
        {
          "internalType": "bool",
          "name": "completed",
          "type": "bool"
        },
        {
          "internalType": "uint256",
          "name": "startTimestamp",
          "type": "uint256"
        },
        {
          "internalType": "uint256",
          "name": "endTimestamp",
          "type": "uint256"
        }
      ],
      "stateMutability": "view",
      "type": "function"
    },
    {
      "inputs": [],
      "name": "owner",
      "outputs": [
        {
          "internalType": "address",
          "name": "",
          "type": "address"
        }
      ],
      "stateMutability": "view",
      "type": "function"
    },
    {
      "inputs": [
        {
          "internalType": "uint256",
          "name": "",
          "type": "uint256"
        }
      ],
      "name": "proposals",
      "outputs": [
        {
          "internalType": "uint256",
          "name": "id",
          "type": "uint256"
        },
        {
          "internalType": "address",
          "name": "proposer",
          "type": "address"
        },
        {
          "internalType": "enum AfriCropDAO.ProposalType",
          "name": "proposalType",
          "type": "uint8"
        },
        {
          "internalType": "string",
          "name": "description",
          "type": "string"
        },
        {
          "internalType": "uint256",
          "name": "stakeAmount",
          "type": "uint256"
        },
        {
          "internalType": "uint256",
          "name": "startBlock",
          "type": "uint256"
        },
        {
          "internalType": "uint256",
          "name": "endBlock",
          "type": "uint256"
        },
        {
          "internalType": "uint256",
          "name": "yesVotes",
          "type": "uint256"
        },
        {
          "internalType": "uint256",
          "name": "noVotes",
          "type": "uint256"
        },
        {
          "internalType": "bool",
          "name": "executed",
          "type": "bool"
        },
        {
          "internalType": "enum AfriCropDAO.ProposalStatus",
          "name": "status",
          "type": "uint8"
        },
        {
          "internalType": "address",
          "name": "targetAddress",
          "type": "address"
        },
        {
          "internalType": "uint256",
          "name": "amount",
          "type": "uint256"
        },
        {
          "internalType": "uint256",
          "name": "paramKey",
          "type": "uint256"
        },
        {
          "internalType": "uint256",
          "name": "paramValue",
          "type": "uint256"
        },
        {
          "internalType": "string",
          "name": "researchGrantDetailsIPFSHash",
          "type": "string"
        }
      ],
      "stateMutability": "view",
      "type": "function"
    },
    {
      "inputs": [
        {
          "internalType": "uint256",
          "name": "_listingId",
          "type": "uint256"
        }
      ],
      "name": "purchaseCrop",
      "outputs": [],
      "stateMutability": "payable",
      "type": "function"
    },
    {
      "inputs": [],
      "name": "registerFarmer",
      "outputs": [],
      "stateMutability": "nonpayable",
      "type": "function"
    },
    {
      "inputs": [
        {
          "internalType": "uint256",
          "name": "",
          "type": "uint256"
        }
      ],
      "name": "registeredFarmers",
      "outputs": [
        {
          "internalType": "address",
          "name": "",
          "type": "address"
        }
      ],
      "stateMutability": "view",
      "type": "function"
    },
    {
      "inputs": [],
      "name": "renounceOwnership",
      "outputs": [],
      "stateMutability": "nonpayable",
      "type": "function"
    },
    {
      "inputs": [
        {
          "internalType": "address",
          "name": "_mentorAddress",
          "type": "address"
        }
      ],
      "name": "requestMentorship",
      "outputs": [],
      "stateMutability": "nonpayable",
      "type": "function"
    },
    {
      "inputs": [
        {
          "internalType": "enum AfriCropDAO.CropType",
          "name": "_cropType",
          "type": "uint8"
        },
        {
          "internalType": "string",
          "name": "_farmId",
          "type": "string"
        },
        {
          "internalType": "uint256",
          "name": "_initialSeeds",
          "type": "uint256"
        }
      ],
      "name": "sowCrop",
      "outputs": [],
      "stateMutability": "nonpayable",
      "type": "function"
    },
    {
      "inputs": [
        {
          "internalType": "bool",
          "name": "_status",
          "type": "bool"
        }
      ],
      "name": "toggleDebugMode",
      "outputs": [],
      "stateMutability": "nonpayable",
      "type": "function"
    },
    {
      "inputs": [
        {
          "internalType": "address",
          "name": "newOwner",
          "type": "address"
        }
      ],
      "name": "transferOwnership",
      "outputs": [],
      "stateMutability": "nonpayable",
      "type": "function"
    },
    {
      "inputs": [
        {
          "internalType": "uint256",
          "name": "_cropId",
          "type": "uint256"
        },
        {
          "internalType": "enum AfriCropDAO.CropStage",
          "name": "_newStage",
          "type": "uint8"
        }
      ],
      "name": "updateCropStage",
      "outputs": [],
      "stateMutability": "nonpayable",
      "type": "function"
    },
    {
      "inputs": [
        {
          "internalType": "uint256",
          "name": "_proposalId",
          "type": "uint256"
        },
        {
          "internalType": "bool",
          "name": "_vote",
          "type": "bool"
        }
      ],
      "name": "voteOnProposal",
      "outputs": [],
      "stateMutability": "nonpayable",
      "type": "function"
    },
    {
      "inputs": [
        {
          "internalType": "address payable",
          "name": "_recipient",
          "type": "address"
        },
        {
          "internalType": "uint256",
          "name": "_amount",
          "type": "uint256"
        }
      ],
      "name": "withdrawDAOFunds",
      "outputs": [],
      "stateMutability": "nonpayable",
      "type": "function"
    }
  ],
  "bytecode": "0x608080604052346200002e57620000163362000033565b620000213362000033565b613bec90816200007b8239f35b600080fd5b600080546001600160a01b039283166001600160a01b03198216811783559216907f8be0079c531659141344cd1fd0a4f28419497f9722a3daafe3b4186f6b6457e09080a356fe608080604052600436101561001357600080fd5b60003560e01c90816264fc9e1461320257508063013cf08b146130d35780630359d9c0146130895780630a203fec14612fc15780630d61b51914612d7d5780630fc5b93014612c6257806312b7963614612c185780631317c1d514612bcb5780631614665c14612a7957806317e77e7b14612a005780631c9568be146129da5780631c9c53421461296e578063225f5c4c1461287d57806328d1bec5146126575780632a7480971461233257806330788952146122b8578063401853b71461228b578063401b2168146122085780634410b6b61461213b57806345193d0c1461203f5780634922075d1461202357806359d177e614611ff85780635a76e12614611d4157806361cf486314611d0a57806370c9f1a514611c52578063715018a614611bf95780637582052014611a9257806377462e0314611a40578063774ba8f4146119c1578063858a9ba21461183857806387430422146117b05780638da5cb5b146117875780638ed1423e146114845780639b5655dc14611468578063a5967b4b14611426578063a68e906b14611393578063addc554e14611014578063b00cc9e414610ed3578063b63b51fa14610ca7578063b8313a0014610b52578063cbfe253f14610ab9578063e1d1a84114610a5f578063e686e69814610880578063efc12241146105a7578063f14975a9146103e3578063f2fde38b146103545763fa4343f51461022357600080fd5b3461034f57604036600319011261034f5761023c613276565b6024359061025160ff60005460a01c166135f5565b60018060a01b0381169182600052602091600e8352604060002082600052835260ff6040600020541661030a57916080916102dd7f19bbd15dd4fc974e5b5f7245fb7442f58bff542e95b0faadaca08e4cf1b4ea9b9486600052600e845260406000208360005284526040600020600160ff19825416179055600d8452600260406000200154906137d6565b6040519160408352600f60408401526e13195cdcdbdb90dbdb5c1b195d1959608a1b6060840152820152a2005b60405162461bcd60e51b815260048101849052601860248201527f4c6573736f6e20616c726561647920636f6d706c6574656400000000000000006044820152606490fd5b600080fd5b3461034f57602036600319011261034f5761036d613276565b610375613556565b6001600160a01b0381161561038f5761038d906135ae565b005b60405162461bcd60e51b815260206004820152602660248201527f4f776e61626c653a206e6577206f776e657220697320746865207a65726f206160448201526564647265737360d01b6064820152608490fd5b3461034f57604036600319011261034f576004356024803590600682101561034f5733600052600660205260ff6006604060002001541615610592578260005260086020526040600020903360018060a01b03600184015416036105735781541561055d57600183036104e05760ff60058301541660068110156104cb576104ad5750816104987fe3736253f98b7399c2640ecc8903eb06e45c0d96010d68d9537f4616d792a2d99360056040945b01613637565b6104a482518092613549565b426020820152a2005b83600060449260405192637309313760e01b84526004840152820152fd5b50634e487b7160e01b60009081526021600452fd5b6002831461051a575b50816104987fe3736253f98b7399c2640ecc8903eb06e45c0d96010d68d9537f4616d792a2d9936005604094610492565b60ff60058301541660068110156104cb5760010361053f5750426004820155816104e9565b83600160449260405192637309313760e01b84526004840152820152fd5b60405163e6d0003560e01b815260048101859052fd5b60405163fef28a7160e01b815233600482015260248101859052604490fd5b60405163122023cb60e21b8152336004820152fd5b3461034f5760208060031936011261034f576004353360005260069182815260ff83604060002001541615610868576000828152600f82526040902060018101805491926001600160a01b039283163381141580610858575b610846576002850194855460ff8160a01c16158015610839575b6108275760ff60a81b1916600160a81b178655426004919091015560008181528783526040902060010154603281019081811161079f5781106107ee5790829181600052888352806001604060002001556040519081527ffc577563f1b9a0461e24abef1e1fcc0d33d3d881f20b5df6dda59de4aae2c821928391a28385541680600052878352600360406000200154601e81019081811161079f5781106107b557837f1ed6d9f9b4975569f7779fc3b0e23c7e27c85edffae0e50466c6286f3862951491836000528a825280600360406000200155604051908152a2838554169182600052878152600160406000200154601481019081811161079f578110610766578596979884600052825280600160406000200155604051908152a25416915416917f5e42e4ce345f0f986a133f1084d0c99a839a662dcb4f315cb2f39ab6cd7a2411600080a4005b60405162461bcd60e51b81526004810183905260116024820152704164646974696f6e206f766572666c6f7760781b6044820152606490fd5b634e487b7160e01b600052601160045260246000fd5b60405162461bcd60e51b81526004810185905260116024820152704164646974696f6e206f766572666c6f7760781b6044820152606490fd5b60405162461bcd60e51b81526004810184905260116024820152704164646974696f6e206f766572666c6f7760781b6044820152606490fd5b60405163de0fb88160e01b8152600490fd5b5060ff8160a81c1661061a565b6040516347099cdf60e01b8152600490fd5b5033846002870154161415610600565b60405163122023cb60e21b8152336004820152602490fd5b3461034f57604036600319011261034f576001600160401b0360043581811161034f576108b190369060040161350f565b906108ba613556565b60016004540191826004556040516108d18161331c565b8381526108df368385613837565b9060208101918252602435604082015284600052600d6020526040600020918151835551958651908111610a49576109278161091e60018601546132c7565b6001860161387d565b6020601f82116001146109b35791816040926002947f9af42a50c7637c9d3df10b3bc6a1d73ed6b264c307a9cd2ef274a5b8aaa4f9ef999a6000926109a8575b50508160011b916000199060031b1c19161760018501555b015191015561099b6040519283926040845260408401916138f4565b60243560208301520390a2005b015190508a80610967565b6001840160005260206000209760005b601f1984168110610a315750827f9af42a50c7637c9d3df10b3bc6a1d73ed6b264c307a9cd2ef274a5b8aaa4f9ef989960029593600193604096601f19811610610a18575b505050811b01600185015561097f565b015160001960f88460031b161c191690558a8080610a08565b828201518a55600190990198602092830192016109c3565b634e487b7160e01b600052604160045260246000fd5b3461034f57602036600319011261034f57600435600052600d602052604060002080546002610a9060018401613373565b920154610aaf6040519384938452606060208501526060840190613426565b9060408301520390f35b3461034f5760208060031936011261034f57600060408051610ada8161331c565b8281526060848201520152600435600052600d8152604060002060405190610b018261331c565b80548252610b476002610b1660018401613373565b9285850193845201549160408401928352604051948594818652519085015251606060408501526080840190613426565b905160608301520390f35b3461034f57600036600319011261034f576040516080906001600160401b039082810182811182821017610a495760405260005b838110610c9957505060405191820190811182821017610a495780604052610bad81613337565b600c81526b41444d494e5f4348414e474560a01b60a0830152815260405190610bd582613337565b600f82526020916e232aa7222fa0a62627a1a0aa24a7a760891b8382015282820152604051610c0381613337565b601081526f504152414d455445525f4348414e474560801b838201526040820152604051610c3081613337565b600e81526d149154d1505490d217d1d490539560921b8382015260608201526040519082820183835260a0830191906000945b60048610610c715784840385f35b9091928180610c8c600193601f198982030187528751613426565b9501930195019490610c63565b606082820152602001610b86565b3461034f57600036600319011261034f57604051610160808201916001600160401b039281811084821117610a495760405260005b828110610ec557505060405190810191821181831017610a49579080604052610d0481613337565b6005815261018090644d41495a4560d81b82840152825260405191610d2883613337565b60048352602092635249434560e01b8482015283820152604051610d4b81613337565b600581526415d211505560da1b848201526040820152604051610d6d81613337565b60078152664341535341564160c81b848201526060820152604051610d9181613337565b60058152644245414e5360d81b848201526080820152604051610db381613337565b6007815266534f524748554d60c81b8482015260a0820152604051610dd781613337565b600681526513525313115560d21b8482015260c0820152604051610dfa81613337565b600381526259414d60e81b8482015260e0820152604051610e1a81613337565b6008815267504f5441544f455360c01b84820152610100820152604051610e4081613337565b6006815265434f4646454560d01b84820152610120820152604051610e6481613337565b600681526521a7aa2a27a760d11b848201526101408201526040519183830184845290830191906000945b600b8610610e9d5784840385f35b9091928180610eb8600193601f198982030187528751613426565b9501930195019490610e8f565b606082820152602001610cdc565b3461034f57600036600319011261034f5733600052600660205260ff6006604060002001541661100257604051610f0981613301565b338152610fa16020820160648152600660408401600081526060850160008152608086016000815260a08701916000835260c088019360018552336000528560205260406000209660018060a01b03809a51166001600160601b0360a01b89541617885551600188015551600287015551600386015551600485015551600584015551151591019060ff801983541691151516179055565b600754600160401b811015610a4957806001610fc092016007556134c0565b819291549060031b9133831b921b1916179055604051606481527fb3219315c0ced99edd962f98390d5e04de34a96f714bfcd29dbd120e6e93dffa60203392a2005b604051635ec7c9e360e11b8152600490fd5b60e036600319011261034f5760048035101561034f576024356001600160401b03811161034f5761104990369060040161350f565b60443591906001600160a01b038316830361034f5760c4356001600160401b03811161034f5761107d90369060040161350f565b93909233600052600660205260ff600660406000200154161561086857662386f26fc10000341061138157600380546001908101918290556000828152600c6020526040902082815590810180546001600160a81b0319163360ff60a01b19161760043560a01b60ff60a01b16179055909390916001600160401b038211610a4957819061111b8261111260028701546132c7565b6002870161387d565b600090601f831160011461131057600092611305575b50508160011b916000199060031b1c19161760028201555b3460038201554360048201556103e843019182431161079f574383106112cc57600e92600583015560006006830155600060078301556008820161010061ffff19825416179055600a82019060018060a01b03166001600160601b0360a01b825416179055606435600b820155608435600c82015560a435600d820155016001600160401b038411610a4957836111ec6020956111e684546132c7565b8461387d565b6000601f8211600114611268578192939460009261125d575b50508160011b916000199060031b1c19161790555b60405161122981600435613419565b3483820152817f89f2ccbe5ce8017189037c67b330b3c300aea4d3f98bf76108c6c8921dbf4ad960403393a3604051908152f35b013590508580611205565b601f1982169483600052866000209160005b8781106112b557508360019596971061129b575b505050811b01905561121a565b0135600019600384901b60f8161c1916905585808061128e565b90928860018192868601358155019401910161127a565b60405162461bcd60e51b81526020600482015260116024820152704164646974696f6e206f766572666c6f7760781b6044820152606490fd5b013590508780611131565b909250600284016000526020600020906000935b601f1984168510611369576001945083601f1981161061134f575b505050811b016002820155611149565b0135600019600384901b60f8161c1916905587808061133f565b81810135835560209485019460019093019201611324565b60405163e47df8d360e01b8152600490fd5b3461034f57604036600319011261034f576113ac613276565b7f19bbd15dd4fc974e5b5f7245fb7442f58bff542e95b0faadaca08e4cf1b4ea9b6080602435926113e460ff60005460a01c166135f5565b6113ee8482613761565b6040519360408552600f60408601526e14995c1d5d185d1a5bdb9059191959608a1b6060860152602085015260018060a01b031692a2005b3461034f57602036600319011261034f5760043560075481101561034f5761144f6020916134c0565b905460405160039290921b1c6001600160a01b03168152f35b3461034f57600036600319011261034f57602047604051908152f35b3461034f57608036600319011261034f5760043560249081359160443560648035336000526020916006835260ff600660406000200154161561177057856000526008835260406000209460018060a01b0395600192338885840154160361175157600582019460ff865416600681101561173c57600203611724578a15801561171c575b6116bb576006830154908281116116e2578203908282116116cd57600793929161153291613704565b04918291015585116116bb57816115e68693600254019788600255600689888d8d6040519561156087613301565b848752838701918252604087019133835260608801938452608088019b8c52600a60a089019542875260c08a01978c8952600052526040600020975188555189880155600287019151166001600160601b0360a01b82541617905551976003988986015551600485015551600584015551151591019060ff801983541691151516179055565b600b54916000805b84811061168f575b501561163a575b50505060ff198254161790556040519485528401527f02fc7dcca0b66fdf3085b17d735126debf7a8bcc69a6f36cd5ceadfb850c791660403394a4005b600160401b83101561167b575061165a8288926116739401600b55613473565b90919082549060031b91821b91600019901b1916179055565b8780806115fd565b634e487b7160e01b60009081526041600452fd5b8961169982613473565b905490881b1c146116b2576116ad90613915565b6115ee565b5050818b6115f6565b604051632dfafbc560e01b8152600490fd5b84634e487b7160e01b60005260116004526000fd5b60405162461bcd60e51b815260048101899052601481870152735375627472616374696f6e206f766572666c6f7760601b60448201528390fd5b508715611509565b60405163fabd00cf60e01b8152600481018b90528490fd5b84634e487b7160e01b60005260216004526000fd5b60405163fef28a7160e01b8152336004820152602481018a9052604490fd5b60405163122023cb60e21b81523360048201528590fd5b3461034f57600036600319011261034f576000546040516001600160a01b039091168152602090f35b3461034f5760208060031936011261034f576001600160a01b036117d2613276565b1660005260108152604060002090604051908181845491828152019360005281600020916000905b8282106118215761181d8561181181890382613352565b6040519182918261328c565b0390f35b8354865294850194600193840193909101906117fa565b3461034f57600036600319011261034f57600b5461185581613965565b906118636040519283613352565b808252601f1961187282613965565b0160005b8181106119aa57505060005b81811061190e5760408051602080825285518183018190528187019383019160005b8281106118b15784840385f35b85518051855280830151858401526040808201516001600160a01b031690860152606080820151908601526080808201519086015260a0808201519086015260c0908101511515908501529481019460e0909301926001016118a4565b8061191b6119a592613473565b9054600391821b1c60005260ff6006602092600a84526040600020906040519461194486613301565b8254865260018301549086015260028201546001600160a01b03166040860152810154606085015260048101546080850152600581015460a0850152015416151560c0820152611994828661397c565b5261199f818561397c565b50613915565b611882565b6020906119b5613729565b82828701015201611876565b3461034f57602036600319011261034f57600435600052600f60205260e0604060002080549060018060a01b039060ff82600183015416926002830154906004600385015494015494604051968752602087015281166040860152818160a01c161515606086015260a81c161515608084015260a083015260c0820152f35b600036600319011261034f573415611a80576040513481527f417371c8755300db975bc6a12052adc3201b9995a1db9162936a008ab744233160203392a2005b6040516339094a0160e01b8152600490fd5b3461034f57602036600319011261034f5760043533600052600660205260ff60066040600020015416156108685780600052600a6020526040600020600681019081549160ff831615611be0576002820154336001600160a01b0390911603611bc75760ff198093169055600180910191825460005260086020526002600560406000200191825416179055806000905b611b53575b505054907facb25d35994796b6f9f20d9b597fb9cd02b56b6128eb21521dd63e2ffa663f68600080a3005b83600b5480831015611bc057611b6883613473565b929054600393841b1c14611b87575050611b8190613915565b81611b23565b909250600019810190811161079f57611bb192611ba661165a92613473565b9054911b1c91613473565b611bb9613924565b8280611b28565b5050611b28565b604051630cb37ab160e31b815260048101859052602490fd5b604051630f0d540d60e11b815260048101859052602490fd5b3461034f57600036600319011261034f57611c12613556565b600080546001600160a01b0319811682556001600160a01b03167f8be0079c531659141344cd1fd0a4f28419497f9722a3daafe3b4186f6b6457e08280a3005b3461034f57602036600319011261034f57600435600052600860205260406000208054600182015491611c8760028201613373565b600382015491611cfb600482015460ff60058401541690611ce66007600686015495015495611cd56040519a8b9a8b5260018060a01b03811660208c015260ff60408c019160a01c1661353c565b6101208060608b0152890190613426565b95608088015260a087015260c0860190613549565b60e08401526101008301520390f35b3461034f57602036600319011261034f57600435600b5481101561034f57611d33602091613473565b90546040519160031b1c8152f35b3461034f57606036600319011261034f57600b600435101561034f576024356001600160401b03811161034f57611d7c90369060040161350f565b9033600052600660205260ff600660406000200154161561086857600180540190816001556040519061012082018281106001600160401b03821117610a49576040528282523360208301526004356040830152611ddb368583613837565b6060830152426080830152600060a0830152600060c083015260443560e08301526000610100830152826000526008602052604060002090825182556001820160018060a01b036020850151168154906040860151600b811015611f65576001600160a81b03199092161760a09190911b60ff60a01b1617905560608301518051906001600160401b038211610a49578190611e8782611e7e60028801546132c7565b6002880161387d565b602090601f8311600114611f8657600092611f7b575b50508160011b916000199060031b1c19161760028301555b6080830151600383015560a0830151600483015560c0830151916006831015611f655760076101007fa5343d6e94b20c484ad84e4be419d97c15ffbe3713dbf2554beb17774c478e5595611f0f611f569660058601613637565b60e081015160068501550151910155336000526009602052611f358460406000206138d1565b60405194611f458660043561353c565b6060602087015260608601916138f4565b924260408201528033940390a3005b634e487b7160e01b600052602160045260246000fd5b015190508780611e9d565b9250600285016000526020600020906000935b601f1984168510611fdd576001945083601f19811610611fc4575b505050811b016002830155611eb5565b015160001960f88460031b161c19169055878080611fb4565b81810151835560209485019460019093019290910190611f99565b3461034f57602036600319011261034f57602061201b612016613276565b613990565b604051908152f35b3461034f57600036600319011261034f576020604051600a8152f35b3461034f57602036600319011261034f5760043561206460ff60005460a01c166135f5565b806000526008602052604060002060058101805460ff81166006811015611f65576001036121035760029060ff1916179055426004820155600760646120ad60068401546136e3565b049101556040519060408252600d60408301526c12185c9d995cdd119bdc98d959609a1b606083015260208201527f19bbd15dd4fc974e5b5f7245fb7442f58bff542e95b0faadaca08e4cf1b4ea9b60803392a2005b60405162461bcd60e51b815260206004820152601060248201526f43726f70206e6f742067726f77696e6760801b6044820152606490fd5b3461034f57602036600319011261034f5760e0612156613276565b61215e613729565b5060018060a01b0380911660005260066020526040600020906040519061218482613301565b82541691828252600181015460208301908152600282015460408401908152600383015490606085019182526004840154926080860193845260c060ff600660058801549760a08a01988952015416960195151586526040519687525160208701525160408601525160608501525160808401525160a083015251151560c0820152f35b3461034f57602036600319011261034f5760e06001600160a01b038061222c613276565b166000526006602052604060002090815416906001810154906002810154600382015460048301549160ff600660058601549501541694604051968752602087015260408601526060850152608084015260a0830152151560c0820152f35b3461034f57602036600319011261034f5760206122a9600435613b63565b6122b66040518092613466565bf35b3461034f57602036600319011261034f57600435600052600a60205260e0604060002080549060018101549060018060a01b03600282015416600382015460048301549160ff600660058601549501541694604051968752602087015260408601526060850152608084015260a0830152151560c0820152f35b602036600319011261034f57600435600052600a602052604060002060ff6006820154161561263e5760028101546001600160a01b031633811461261e576003820191825480341061260c5760018201549081600052600860205260406000209160ff6005840154166006811015611f65576003036125f4575060646123b78261366f565b04938185116125b857818581031161079f57600080809381938883928181146125ae575b0391f1156125a2576001810180546001600160a01b03191633179055600501805460ff19908116600417909155600682018054909116905560005b600b548082101561259a5761242a82613473565b60043591549060031b1c14612448575061244390613915565b612416565b91929160001981019190821161079f5761165a61246761247493613473565b90549060031b1c91613473565b61247c613924565b60018060a01b036002830154167fd1ff1a79b2d5fd0302387e7afb68baaa8814214f73d874582b1bed7497ec43d660206124cd600a60048701540484600052600683526004604060002001546137c2565b836000526006825280600460406000200155604051908152a2336000526006602052600160406000200154600581019081811161079f5781106112cc57336000526006602052806001604060002001556040519081527ffc577563f1b9a0461e24abef1e1fcc0d33d3d881f20b5df6dda59de4aae2c82160203392a2600182015491600260018060a01b039101541692546040519384526020840152604083015233917f64357fbf5c6b87e27bc9ef42880eddc6d8d72bba8eecb6fb6d48ddc01b6e5eeb606060043592a4005b50509061247c565b6040513d6000823e3d90fd5b6108fc93506123db565b60405162461bcd60e51b81526020600482015260146024820152735375627472616374696f6e206f766572666c6f7760601b6044820152606490fd5b60249060405190631bf31a5760e01b82526004820152fd5b60405163e9fa266960e01b8152600490fd5b6044604051637309313760e01b8152600435600482015260036024820152fd5b6024604051630f0d540d60e11b81526004356004820152fd5b3461034f5760208060031936011261034f57612671613276565b336000526006825260ff91826006604060002001541615610868573360005260068152600391603283604060002001541061286b5760018060a01b038091169384600052600683526001906101f482604060002001541061286b57600090825b6127e9575b505090600482601094936005540195869182600555604051946126f886613301565b838652868601908a825260408701913383526060880191600083526080890191600083528160a08b01966000885260c08c019960008b52600052600f8d5260406000209b518c558b019151166001600160601b0360a01b8254161790556002890193511683549260ff60a01b9051151560a01b169160ff60a81b9051151560a81b169269ffffffffffffffffffff60b01b161717179055519084015551910155336000528181526127ad8360406000206138d1565b83600052526127c08160406000206138d1565b33907f938cdb2e06e8cb464446b23d2c356f5ab972786c8901ea9b33594ac4fbc83933600080a4005b3360005260108552604060002080548310156128655782612809916134f7565b905490871b1c600052600f855260406000208188868684015416149182612853575b50506128415761283b8392613915565b916126d1565b604051631f2d47fb60e01b8152600490fd5b6002015460a81c16159050818961282b565b506126d6565b604051635afb9b1560e11b8152600490fd5b3461034f57602036600319011261034f5760043533600052600660205260ff6006604060002001541615610868576000818152600f6020526040902060018101546001600160a01b0316331480159061295d575b6129185760028101805460ff60a01b1916600160a01b179055426003909101557f809fee5f8f097ee63e604f7b6528e75d1876b350230a1313c6ed558fa8f21970600080a2005b60405162461bcd60e51b815260206004820152601e60248201527f4e6f74206d656e746f72206f7220616c726561647920616363657074656400006044820152606490fd5b5060ff600282015460a01c166128d1565b3461034f57602036600319011261034f5760043580151580910361034f5760207fb56406b60a7518351e302d48428fa0bda10a1b6e0244a2edd78ceaeeab5a4f30916129b8613556565b6000805460ff60a01b191660a083901b60ff60a01b16179055604051908152a1005b3461034f57600036600319011261034f57602060ff60005460a01c166040519015158152f35b3461034f57604036600319011261034f576004356001600160a01b0381169081900361034f57602435612a31613556565b80156116bb5747811161260c576000808080848682f1156125a25760207f41fdd680478135993bc53fb2ffaf9560951b57ef62ff6badd02b61e018b4f17f91604051908152a2005b3461034f57604036600319011261034f5760243560043581151580830361034f5733600052600660205260ff60066040600020015416156108685781600052600c6020526040600020805415612bb2576009810190336000528160205260ff60406000205416612b9957600481015443108015612b8c575b612b7a57612afe33613990565b9485156108685715612b6557600601612b188582546137c2565b90555b336000526020526040600020600160ff1982541617905560405192835260208301527fb898e75d5aac8de2f407e4a683c8d909e832d1e371e3bff0fa3ed934e88d956260403393a3005b600701612b738582546137c2565b9055612b1b565b604051637111e40960e01b8152600490fd5b5060058101544311612af1565b604051638ebae3f160e01b815260048101859052602490fd5b604051637356cf9f60e11b815260048101849052602490fd5b3461034f57604036600319011261034f576001600160a01b03612bec613276565b16600052600e6020526040600020602435600052602052602060ff604060002054166040519015158152f35b3461034f57604036600319011261034f57612c31613276565b6001600160a01b031660009081526009602052604090208054602435919082101561034f57602091611d33916134f7565b3461034f5760208060031936011261034f5760043590336000526006815260ff60066040600020015416156108685733600052600e8152604060002082600052815260ff60406000205416612d6b5781600052600d81526040600020805415612d335760027f704a6d8e51cc37a7f29761caf0e68952c4a89bc8a854c7715c45f496b9b44d3c9133600052600e845260406000208560005284526040600020600160ff1982541617905501612d188154336137d6565b612d26815460011c33613761565b54916040519283523392a3005b60405162461bcd60e51b815260048101839052601060248201526f13195cdcdbdb881b9bdd08199bdd5b9960821b6044820152606490fd5b604051630ac32ea160e41b8152600490fd5b3461034f5760208060031936011261034f576004359081600052600c81526040600020805415612bb2576005810154431115612faf576008810191825460ff8116612faf57600683015460078401541015612fa15750825461ff001916610200178355600182015460a01c60ff166004811015611f655780612ea75750600a909101546001600160a01b031690612e12613556565b8115612e545750612e22906135ae565b805460ff191660011790557f712ae1383f79ac853f8d882153778e0260ef8f03b504e2866e0593e04d2b291f600080a2005b6084906040519062461bcd60e51b82526004820152602660248201527f4f776e61626c653a206e6577206f776e657220697320746865207a65726f206160448201526564647265737360d01b6064820152fd5b60018103612f5857504790600b8301928354809310612f1e57600a0191600080808060018060a01b039485885416828215612f15575bf1156125a2577ffb73cce0f726a81d919cfa76174400046f2bc8bec994d9ab0f5b1c0c3418a3f79254169254604051908152a2612e22565b506108fc612edd565b60405162461bcd60e51b8152600481018390526012602482015271496e73756666696369656e742066756e647360701b6044820152606490fd5b600214612f67575b5050612e22565b7fac84f340b0d4965a45bcd2269f85a91fe9471a8d7fd2afa52c85e26a1ac622ac90600d600c840154930154604051908152a28280612f60565b61ff00191661030017909255005b60405163015dc0dd60e11b8152600490fd5b3461034f57600036600319011261034f57604051806007548083526020809301809160076000527fa66cc928b5edb82af9bd49922954155ab7b0942694bea4ce44661d9a8736c6889060005b8682821061306c57868661302382880383613352565b604051928392818401908285525180915260408401929160005b82811061304c57505050500390f35b83516001600160a01b03168552869550938101939281019260010161303d565b83546001600160a01b03168552909301926001928301920161300d565b3461034f57604036600319011261034f576130a2613276565b6001600160a01b031660009081526010602052604090208054602435919082101561034f57602091611d33916134f7565b3461034f57602036600319011261034f57600435600052600c602052604060002080546001820154916002810161310990613373565b906003810154906004810154600582015460068301546007840154600885015490600160a01b60019003600a8701541692600b87015494600c88015496600d89015498600e0161315890613373565b9a6040519d8e9d8e528d600160a01b60019003821660208201526040019060a01c60ff169061318691613419565b8c6102006060819201528d0161319b91613426565b9960808d015260a08c015260c08b015260e08a015261010089015260ff8116151561012089015261014088019060081c60ff16906131d891613466565b6101608701526101808601526101a08501526101c08401528281036101e084015261181d91613426565b3461034f576020908160031936011261034f576001600160a01b03613225613276565b166000526009825260406000209182548083528183019360005281600020916000905b82821061325f5761181d8561181181890382613352565b835486529485019460019384019390910190613248565b600435906001600160a01b038216820361034f57565b6020908160408183019282815285518094520193019160005b8281106132b3575050505090565b8351855293810193928101926001016132a5565b90600182811c921680156132f7575b60208310146132e157565b634e487b7160e01b600052602260045260246000fd5b91607f16916132d6565b60e081019081106001600160401b03821117610a4957604052565b606081019081106001600160401b03821117610a4957604052565b604081019081106001600160401b03821117610a4957604052565b90601f801991011681019081106001600160401b03821117610a4957604052565b9060405191826000825492613387846132c7565b9081845260019485811690816000146133f657506001146133b3575b50506133b192500383613352565b565b9093915060005260209081600020936000915b8183106133de5750506133b1935082010138806133a3565b855488840185015294850194879450918301916133c6565b9150506133b194506020925060ff191682840152151560051b82010138806133a3565b906004821015611f655752565b919082519283825260005b848110613452575050826000602080949584010152601f8019910116010190565b602081830181015184830182015201613431565b906005821015611f655752565b600b548110156134aa57600b6000527f0175b7a638427703f0dbe7bb9bbf987a2551717b34e79f33b5b1008d1fa01db90190600090565b634e487b7160e01b600052603260045260246000fd5b6007548110156134aa5760076000527fa66cc928b5edb82af9bd49922954155ab7b0942694bea4ce44661d9a8736c6880190600090565b80548210156134aa5760005260206000200190600090565b9181601f8401121561034f578235916001600160401b03831161034f576020838186019501011161034f57565b90600b821015611f655752565b906006821015611f655752565b6000546001600160a01b0316330361356a57565b606460405162461bcd60e51b815260206004820152602060248201527f4f776e61626c653a2063616c6c6572206973206e6f7420746865206f776e65726044820152fd5b600080546001600160a01b039283166001600160a01b03198216811783559216907f8be0079c531659141344cd1fd0a4f28419497f9722a3daafe3b4186f6b6457e09080a3565b156135fc57565b60405162461bcd60e51b81526020600482015260136024820152721119589d59c81b5bd91948191a5cd8589b1959606a1b6044820152606490fd5b906006811015611f655760ff80198354169116179055565b8115613659570490565b634e487b7160e01b600052601260045260246000fd5b80156136dd57600a810290808204600a0361079f57613690600a918361364f565b036136985790565b60405162461bcd60e51b815260206004820152601760248201527f4d756c7469706c69636174696f6e206f766572666c6f770000000000000000006044820152606490fd5b50600090565b80156136dd57605a810290808204605a0361079f57613690605a918361364f565b9081156137225780820291808304820361079f57613690908361364f565b5050600090565b6040519061373682613301565b8160c06000918281528260208201528260408201528260608201528260808201528260a08201520152565b60206137a77ffc577563f1b9a0461e24abef1e1fcc0d33d3d881f20b5df6dda59de4aae2c8219260018060a01b03169384600052600683526001604060002001546137c2565b836000526006825280600160406000200155604051908152a2565b9081019081811161079f5781106112cc5790565b602061381c7f1ed6d9f9b4975569f7779fc3b0e23c7e27c85edffae0e50466c6286f386295149260018060a01b03169384600052600683526003604060002001546137c2565b836000526006825280600360406000200155604051908152a2565b9291926001600160401b038211610a495760405191613860601f8201601f191660200184613352565b82948184528183011161034f578281602093846000960137010152565b90601f811161388b57505050565b600091825260208220906020601f850160051c830194106138c7575b601f0160051c01915b8281106138bc57505050565b8181556001016138b0565b90925082906138a7565b90815491600160401b831015610a49578261165a9160016133b1950181556134f7565b908060209392818452848401376000828201840152601f01601f1916010190565b600019811461079f5760010190565b600b54801561394f576000199081019061393d82613473565b909182549160031b1b19169055600b55565b634e487b7160e01b600052603160045260246000fd5b6001600160401b038111610a495760051b60200190565b80518210156134aa5760209160051b010190565b6001600160a01b03908116600090815260066020908152604080832081519194919290916139bd84613301565b8254168352600194858301549384838201526002840154968282019788526003850154916060810192835260ff6006600497888101546080850152600581015460a0850152015416159060c08215910152613b5857808601808711613b4557868110613b0e57811c90865b878310613ab157505050613a47906032606480995104915104906137c2565b860194858711613a9e5750858510613a6a5750505090613a6691613704565b0490565b5162461bcd60e51b81529182015260116024820152704164646974696f6e206f766572666c6f7760781b6044820152839150fd5b634e487b7160e01b815260118452602490fd5b91965090868015613ad85780613aca613acf928461364f565b6137c2565b821c9190613a28565b845162461bcd60e51b8152808801879052601060248201526f4469766973696f6e206279207a65726f60801b6044820152606490fd5b835162461bcd60e51b815280870186905260116024820152704164646974696f6e206f766572666c6f7760781b6044820152606490fd5b634e487b7160e01b885260118652602488fd5b505050505050905090565b600052600c60205260406000208054156136dd5760ff600882015416613bb05760058101544311613b945750600190565b6007600682015491015410600014613bab57600290565b600390565b5060049056fea26469706673582212208329305f4dd9c6aa4663d129b914754bc45b9e12bbc96fca920207db0a513add64736f6c63430008140033",
  "linkReferences": {},
  "deployedLinkReferences": {}
}